:020000040800F2
:10000000E806002089010008C1140008B1130008A7
:10001000BD140008FD030008DD1500080000000005
:100020000000000000000000000000002115000892
:100030000104000800000000F11400085515000834
:10004000A3010008A3010008A3010008A301000800
:10005000A3010008A3010008A3010008A3010008F0
:10006000A3010008A3010008A3010008A3010008E0
:10007000A3010008A3010008A3010008A3010008D0
:10008000A3010008A3010008A3010008A3010008C0
:10009000A3010008A3010008A3010008A3010008B0
:1000A000A3010008A3010008A3010008A3010008A0
:1000B000A3010008A3010008A3010008A301000890
:1000C000A3010008A3010008A3010008A301000880
:1000D000A3010008A3010008A3010008A301000870
:1000E000A3010008A3010008A301000800F002F822
:1000F00000F03AF80AA090E8000C82448344AAF188
:100100000107DA4501D100F02FF8AFF2090EBAE885
:100110000F0013F0010F18BFFB1A43F0010318473B
:100120008C1E0000AC1E0000103A24BF78C878C1B5
:10013000FAD8520724BF30C830C144BF04680C60ED
:10014000704700000023002400250026103A28BF35
:1001500078C1FBD8520728BF30C148BF0B60704739
:100160001FB51FBD10B510BD00F058F81146FFF7C0
:10017000F7FF01F05FFA00F076F803B4FFF7F2FF43
:1001800003BC00F07DF8000009488047094800479B
:10019000FEE7FEE7FEE7FEE7FEE7FEE7FEE7FEE737
:1001A000FEE7FEE704480549054A064B7047000094
:1001B000D9150008ED000008E8000020E80600203E
:1001C000E8020020E80200204FF0000200B51346CC
:1001D00094469646203922BFA0E80C50A0E80C5067
:1001E000B1F12001BFF4F7AF090728BFA0E80C5018
:1001F00048BF0CC05DF804EB890028BF40F8042B11
:1002000008BF704748BF20F8022B11F0804F18BF7D
:1002100000F8012B7047704770477047754600F033
:100220002BF8AE4605006946534620F00700854688
:1002300018B020B5FFF7B6FFBDE820404FF000062C
:100240004FF000074FF000084FF0000BAC46ACE851
:10025000C009ACE8C009ACE8C009ACE8C00921F0AD
:1002600007018D46704710B50446AFF30080204665
:10027000BDE81040FFF781BF004870471000002024
:1002800001491820ABBEFEE72600020070470000BF
:10029000B0B5044600688168C90709D0816821F0BB
:1002A0000101816000F06EFC21688968C90701D1F5
:1002B0000020B0BD054603E020688068C007F7D085
:1002C00000F060FC401B0328F6D320688068C0075C
:1002D000F2D0A06A40F01000A062E06A40F0010095
:1002E000E0620120B0BD0000B0B582B0044600203D
:1002F000019021688A68D2073DD1886840F00100EA
:10030000886040F20000C2F2000000684DF6836190
:10031000C4F21B31A0FB0101880C00BF01900198C1
:1003200010B101980138F9E700F02CFC21688968C8
:10033000C9071CD1054603E020688068C00719D1B1
:1003400000F020FC401B0328F6D320688068C0071B
:10035000F2D1A06A40F01000A062E06A40F0010013
:10036000E062002084F82400012002B0B0BD00202B
:1003700002B0B0BD002002B0B0BD000080B584B0B6
:1003800000200190012002900720039040F2B0006D
:10039000C2F2000001A900F03BF8002804BF04B03D
:1003A00080BD00F02FF8000080B584B00120CDE9B9
:1003B00001000720039040F2B000C2F2000001A942
:1003C00000F026F8002804BF04B080BD00F01AF841
:1003D00080B584B011200190012002900720039085
:1003E00040F28000C2F2000001A900F011F80028DC
:1003F00004BF04B080BD00F005F80000FEE7000077
:1004000070470000EFF3108072B600BFFEE70000F7
:1004100070B581B00022009290F82420012A01D109
:10042000022177E04A680123062A80F8243005D8A3
:1004300003686FF0040C03F1340E0AE003680C2A21
:1004400087BF03F12C0E6FF0400C03F1300E6FF0FC
:10045000220C02EB8202DEF8005062441F230C687B
:10046000934025EA030304FA02F21A43CEF800206F
:100470000E68D0F800E006EB46051024092E88BF70
:100480001E3D88BF0C245EF8042007238968AB401A
:100490009A43A94011434EF8041026F001014FF091
:1004A000000C10294FF0000132D142F20041C4F299
:1004B00001018E4505D0816A41F020018162012150
:1004C00026E08968090222D4DEF80810102E41F4D3
:1004D0000001CEF808101AD140F20001C2F200016A
:1004E00009684DF68362C4F21B32A1FB0212910C23
:1004F00001EB810149000091009941B10099013956
:100500000091009900294FF00001F7D100E000218F
:1005100080F824C0084601B070BD00000068C06CBF
:1005200070470000002804BF01207047F0B581B07B
:100530000746044657F8280F30B90020E06284F8D7
:100540002400204600F07CF82046FFF7A1FEA26AB6
:10055000A16A002808BF12F0100205D041F0100176
:100560000120396001B0F0BD41F202129143023125
:10057000A162E169D4E9013241EA0305511EB1FAF1
:1005800081F149091346B2F5807F18BF0B02267D21
:10059000217B012E45EA410C13D141B1A16A41F002
:1005A0002001A162E16A41F00101E16209E0A16973
:1005B0004EF20006CFF6FF7606EB4131194341F4C7
:1005C00000632168B2F5807F4E6826F4694643EAED
:1005D00006034B608B684FF2FD76CFF6E17603EAB7
:1005E000060343EA0C038B6001D0012A06D122697D
:1005F0000023CFF6F07303EB025200E00022CB6A37
:1006000023F470031A43CA62896840F6FE62CFF68B
:100610001F721140614506D10021E162A16A0122E9
:1006200062F301019DE7A06A40F0100020F0020093
:10063000A06254F82C0F40F001010120274690E7FA
:1006400080B586B0006842F60001C4F2010188421C
:100650004FF00001CDE90411CDE9021114D042F2AE
:100660000041C4F2010188422ED141F21800C4F2C7
:100670000200016841F400710160006800F400703C
:100680000190019806B080BD41F21800C4F202004A
:10069000016841F480610160016801F480610191A9
:1006A0000199016841F004010160006802A900F0AD
:1006B0000400019001980320CDE9020040F60000FB
:1006C000C4F2010000F052F906B080BD2DE9F041FE
:1006D00082B000260D460446019600F053FA2168C8
:1006E0008A68D2053CD480464868C00503D4C86AED
:1006F00010F4700F3ED040F20000C2F20000066815
:10070000022000F0C5FA216844F624130A69B6FBFA
:10071000F0F0C2F292431A4206D1CA6844F624139A
:10072000C0F292031A423ED00A6942F29243C1F2E9
:1007300049231A4206D1CA6842F29243C0F24903E1
:100740001A4242D00A6949F24923C0F224031A42EC
:100750004FF0FC023AD1C968194208BF542235E073
:10076000A06A40F02000A06284F82460012002B05A
:10077000BDE8F08120680068800743D46E1C07E064
:100780002068006880075CD520680068800739D43D
:10079000002EF9D0002DF3D000F0F4F9A0EB080002
:1007A000A842EDD8F0E70A6942F29243C1F2492328
:1007B0001A424FF0290209D1C96842F29243C0F2AD
:1007C0004903194208BF142200E05422019902FB98
:1007D00000F7B94216D26E1C09E000BF0198B8427A
:1007E0002FD30198013001900198B8420AD2002E0F
:1007F000F7D0002DF2D000F0C5F9A0EB0800A84218
:10080000ECD8EEE720686FF012010160A16A41F4B4
:100810000071A162806800F46020B0F5602F0CD1F7
:10082000207B50B9A06A20F48070A062A06AC00446
:1008300003D4A06A40F00100A062002002B0BDE82D
:10084000F081A06A40F00400A062002084F8240037
:10085000032002B0BDE8F08110B5044690F82400F2
:10086000012804BF022010BD012084F82400204686
:10087000FFF73AFD18B1002184F8241010BD42F2B0
:10088000044C2168A26AC4F2010C40F201339A437D
:100890000CF57F7E02F580727145A26207D0A26AD4
:1008A00022F48012A2624A68520519D41DE0DCF8D5
:1008B000002012F4702FF2D0A26A42F60003C4F2B4
:1008C000010342F480129942A26205D042F2004232
:1008D000C4F20102914208D1DCF80020520504D58F
:1008E000A26A012363F30D32A262A36A0022DB0431
:1008F0004FF0000344BFE36A23F00603E36284F889
:1009000024206FF002020A608A6802F46022B2F5C5
:10091000602F0BD1714504D08A6842F4A0028A602E
:1009200010BDDCF8002012F4702FF5D08A6842F474
:1009300080128A6010BD000010B5044690F82400B3
:10094000012804BF022010BD012084F824002046A5
:10095000FFF79EFC28B9A16A41F2011291430131CF
:10096000A162002184F8241010BD00002DE9F04F91
:1009700084B00E680290002E00F0018140F2004722
:1009800041F2004202984FF6FF7EC4F20107C4F222
:100990000102042300240125C1F2100E4FF0000AC9
:1009A0004FF00009904208BF032300930AE000BF04
:1009B00001250E680AF1010A36FA0AF204F104046C
:1009C00000F0DD8005FA0AFB16EA0B08F1D04A6850
:1009D000724511DC122A54D80298DFE802F0350A79
:1009E0004347535353535353535353535353534AFC
:1009F0004E00D1F80C9045E04FF6FF73C1F2210391
:100A00009A4210DC0023C1F2110302989A421BD0D3
:100A10000023C1F212039A4216D00023C1F221032F
:100A20009A4211D02EE00023C1F2220302989A428A
:100A30000AD00023C1F231039A4205D00023C1F24B
:100A400032039A421ED100BF8A6842B1012A14BF04
:100A5000C0F814B0C0F810B04FF0080912E04FF021
:100A600004090FE0CA6802F108090BE04FF0000921
:100A700008E0CA6802F1040904E0CA6802F10C093E
:100A800000E0029822460346B8F5807F24BF203A52
:100A900004331D684FF00F0C0CFA02F6B54309FA47
:100AA00002F22A431A60CA79D2067FF581AF41F279
:100AB0001803CDF80490C4F202031A68F34642F01A
:100AC00001021A601A684FEA9A0E02F001020392BC
:100AD000039AA7F57E72B94652F82E3004F00C073F
:100AE00040F600060CFA07F5C4F20106B04223EA0C
:100AF000050C10D040F60043C4F2010398420CD01C
:100B000041F20003C4F201039842009B4FF001053B
:100B100008BF022303E0002300E001230125BB40BE
:100B200043EA0C0342F82E304E684F46F203D9F8E0
:100B3000002054BF22EA080242EA0802DDF80490CD
:100B40003A607A68B30354BF22EA080242EA080214
:100B50007A60F302BA6854BF22EA080242EA080245
:100B6000B30240F20C43BA60C4F20103DE461A68D5
:100B700054BF22EA080242EA08021A6019E704B0E8
:100B8000BDE8F08F40F2E000C2F20000006870475C
:100B900040F2040040F2E001C2F20000C2F20001A3
:100BA00000780A68104408607047000080B542F27F
:100BB0000000C4F20200016841F01001016003204E
:100BC00000F062F80F2000F005F800F02BF800208C
:100BD00080BD0000B0B540F20402C2F2000240F253
:100BE00000011278C2F200014FF47A730968B3FB76
:100BF000F2F20446B1FBF2F1084600F0D5FB0F2CEF
:100C00004FF001050CD858B94FF0FF3021460022B3
:100C1000002500F029F840F20800C2F2000004604C
:100C20002846B0BD82B041F21800C4F2020001684B
:100C3000022241F001010160016801F0010101910E
:100C40000199416841F080514160406800F0805056
:100C5000009000980420C4F20100016862F31A6158
:100C6000016002B07047000070B514460D4606469C
:100C700000F0B6FC2946224600F024FC014630462E
:100C800000F0B6FC70BD000080B500F0C3FC80BD74
:100C900080B5012818D0022841D010283DD141F25A
:100CA0000401C4F202010A6851F8040CC00134D5F1
:100CB000C2F383402EA3185CD2033FD440F6001247
:100CC000C0F23D02504345E041F20400C4F202008C
:100CD000C16940F202320A40B2F5817F04BF4FF48D
:100CE000004080BD01F44071B1F5407F0DD0B1F5F9
:100CF000007F12D1026A920744BF49F6404080BD8E
:100D0000B1F5407F1CBF002080BD50F8040C4FF2AD
:100D10002441800301EAE07080BD002080BD00F026
:100D200077F941F20401C4F2020109680222C1F319
:100D3000813102EB4101B0FBF1F080BD0A6810A3E4
:100D4000C2F340429A5C41F20023C0F27A03B3FB43
:100D5000F2F250430968490248BF80BD4AF6AB2110
:100D60004000CAF6AA21A0FB0101480880BD00BFCF
:100D700002030405060708090A0B0C0D0E0F1010DC
:100D8000010200002DE9F04182B00446007841F2F2
:100D90001C06C007C4F202064ED03068C0000BD457
:100DA00030684FF0010840F080503060306800F04B
:100DB00080500190019801E04FF0000847F20007D1
:100DC000C4F200073868C00512D4386840F4807057
:100DD0003860FFF7D7FE05463868C00508D4FFF72E
:100DE000D1FE401B6428F7D9032002B0BDE8F08192
:100DF000706810F4407012D0616801F4407188424C
:100E00000DD0706840F24042C4F24222012320F427
:100E1000407113600023C0071360716029D17068AE
:100E2000616820F440700843B8F1000F706003D08F
:100E3000306820F0805030602068810707D556F870
:100E4000181CA26821F44041114346F8181CC00642
:100E500003D4002002B0BDE8F08156F8180CE16818
:100E600020F48000084346F8180C002002B0BDE8CA
:100E7000F081FFF787FE054641F2883770688007EA
:100E8000CDD4FFF77FFE401BB8424FF00300F5D9E9
:100E9000ECE700002DE9F04381B0002800F08780E6
:100EA00042F20008C4F202080446D8F800000D46D9
:100EB00000F0070088420CD2D8F8000020F00700AC
:100EC0002843C8F80000D8F8000000F00700A84246
:100ED0006DD1206841F204098107C4F2020917D5D7
:100EE000410705D5D9F8001041F4E061C9F80010B8
:100EF000010705D5D9F8001041F46051C9F8001078
:100F0000D9F80010A26821F0F0011143C9F80010CF
:100F1000C00745D1D8F8000000F00700A8420CD95E
:100F2000D8F8000020F007002843C8F80000D8F8DF
:100F3000000000F00700A84239D12068410707D51A
:100F4000D9F80010E26821F4E0611143C9F80010FB
:100F5000000708D5D9F80000216920F4605040EA64
:100F6000C100C9F8000000F065F8D9F8001041F69A
:100F70009472C1F30311C0F60002515C40F200020A
:100F800020FA01F140F20800C2F200000068C2F24B
:100F900000021160FFF71EFE002001B0BDE8F083E3
:100FA0006068012807D159F8041C89030CD401207A
:100FB00001B0BDE8F08359F8041C022802D1890170
:100FC000F5D501E08907F2D5D9F8001021F0030129
:100FD0000843C9F80000FFF7D5FD064641F28837FF
:100FE000D9F80000616800F00C00B0EB810F91D0DF
:100FF000FFF7C8FD801BB842F2D9032001B0BDE85D
:10100000F083000040F20000C2F200000068704768
:1010100080B5FFF7F7FF41F20401C4F2020109684D
:1010200041F6A472C1F3C221C0F60002515CC8406F
:1010300080BD000041F2040CC4F2020CDCF8003068
:1010400003F00C00082841F20020C0F27A0018BF1B
:101050007047C3F383420AA18A5CD90305D440F6E2
:101060000010C0F23D0050437047DCF8001008A3A8
:10107000C1F34041595C5043B0FBF1F0704700BFF1
:1010800002030405060708090A0B0C0D0E0F1010C9
:10109000010200002DE9F04182B0002800F0C48078
:1010A0000446007841F20006C007C4F2020643D0AD
:1010B000706800F00C00042817D0706800F00C0075
:1010C000082802D17068C0030FD465689DB1B5F5DA
:1010D000803F06D03068B5F5A02F0DD140F48020B8
:1010E0003060306840F480300CE03068800323D5F5
:1010F000606808BB98E0306820F480303060306869
:1011000020F480203060FFF73DFD002D054610D013
:101110003068800310D4FFF735FD401B6428F7D9F1
:1011200008E100BFFFF72EFD401B64284FF00300CD
:1011300077D830688003F5D42078800718D5706898
:1011400010F00C0F07D0706800F00C00082826D1B2
:101150007068C00323D43068800702D52069012855
:1011600062D13068616920F0F80040EAC100306067
:10117000207800073DD5A06938B30020C4F2422092
:101180000121C0F88014FFF7FDFC0546706A800756
:101190002DD4FFF7F7FC401B0228F7D9CAE02069DD
:1011A000002840F20000C4F2422000F09A800121A1
:1011B0000160FFF7E7FC054630688007D1D4FFF7F0
:1011C000E1FC401B0228F7D9B4E00020C4F2422021
:1011D0000021C0F88014FFF7D5FC0546706A80072F
:1011E00007D5FFF7CFFC401B0228F7D9A2E000F09B
:1011F00081F9207840071BD4E5698DB1706800F053
:101200000C0008284CD1012D0ED07068216A00F422
:1012100080328A4208D1616A00F47010884203D19A
:10122000002002B0BDE8F081012002B0BDE8F081ED
:10123000F069C0000BD4F0694FF0010840F0805015
:10124000F061F06900F080500190019801E04FF0EA
:10125000000847F20007C4F200073868C00510D440
:10126000386840F480703860FFF78CFC054600BF9A
:101270003868C00505D4FFF785FC401B6428F7D902
:1012800058E0E568002D3DD0012D05D0306A052DD0
:1012900039D140F004003062306A40F0010038E09B
:1012A0000027C4F2422700203866FFF76BFC022DAE
:1012B00005460BD13068800154D5FFF763FC401B15
:1012C00002284FF00300F5D9ABE700BF306880017A
:1012D000A6D5FFF757FC401B02284FF00300F5D9B5
:1012E0009FE700210160FFF74DFC0546306880074D
:1012F0007FF53EAFFFF746FC401B02284FF003008E
:10130000F4D98EE7306A20F001003062306A20F0B4
:1013100004003062FFF736FC002D054641F28837A5
:1013200014D000BF306A800713D4FFF72BFC401B9A
:10133000B842F7D9032002B0BDE8F081FFF722FCE4
:10134000401BB8424FF003003FF66BAF306A800796
:10135000F4D4B8F1000F3FF44FAFF06920F08050A3
:10136000F06149E7206AB0F5803F05D17168A26855
:1013700021F40031114371607168626A21F47411C3
:1013800010430843706001203866FFF7FBFB0446FA
:10139000306880013FF544AFFFF7F4FB001B0228E3
:1013A0004FF00300F4D93CE780B500F0BBF880BDF6
:1013B000FEE7000010B584B040F2800042F2004227
:1013C0000021C2F20000C4F201024FF460230124A4
:1013D0000391CDE9011101730175C361C0E90021D9
:1013E00081600461FFF79EF878B91120CDE901040E
:1013F0000720039040F28000C2F2000001A9FFF72D
:1014000007F8002804BF04B010BDFEF7FBFF000082
:10141000B0B584B040F2B00042F600010024C2F240
:101420000000C4F2010101254FF460234FF48072E3
:1014300005730475C361C0E9001402210394CDE96A
:10144000014482600161FFF76DF8D0B90720CDE952
:101450000145039040F2B000C2F2000001A9FEF77E
:10146000D7FF70B9012001900220029040F2B00035
:10147000C2F2000001A9FEF7CBFF002804BF04B0B0
:10148000B0BDFEF7BFFF000082B041F21800C4F209
:101490000200016841F020010160016801F02001B3
:1014A00001910199016841F004010160006800F0B8
:1014B00004000090009802B070470000FEE70000B2
:1014C000FEE7000000F0070080F00703042B28BFB0
:1014D00004234FF0FF3C03380CFA03F338BF00201D
:1014E000994381400CFA00F022EA0000084370475B
:1014F0007047000081B040F20000C2F200000068B6
:1015000044F6D351C1F26201A0FB0101480A0090E8
:1015100000BF0098411E00280091F9D101B070472A
:1015200070470000B0B501380024B4EB106F1CBF49
:101530000120B0BD4EF21005CEF2000568604FF0FC
:10154000FF300F2100F054F80720AC6028602046DF
:10155000B0BD000080B5FFF71BFB80BD70B594B037
:101560000AAC20462821FEF72FFE002501204FF46B
:1015700080310A90CDE90B150E9002264FF4E01051
:10158000CDE91161139020460995CDE90755CDE9C4
:101590000555CDE90355CDE90155FFF77BFDC0B9F0
:1015A0000F20CDE905064FF480600795CDE90805C9
:1015B00005A80221FFF76EFC58B9022001904FF4F4
:1015C0000040039001A8FFF7DDFB002804BF14B022
:1015D00070BDFEF717FF000070470000FEE7000037
:1015E0004EF60C50CEF200000068C0F302207047A7
:1015F0004EF6145300F00F02CEF2000309011A4414
:1016000000F16043B0F1FF3FC8BF03F564421170C1
:10161000704700004EF60C51CEF200010A684FF6FA
:10162000FF031A4060F30A2242F0806040F0FD7030
:1016300008607047FFF7BAFAFFF790FFFFF724FF43
:10164000FFF7B8FEFFF7E4FEFEF7C2FE40F2800BA4
:10165000C2F2000B5846FFF7FFF858464FF4967158
:10166000FFF734F85846FEF759FF40F27C01C2F20A
:101670000001088080B200F02FFC014649F2000012
:10168000C4F2995000F066FB40F2E408C2F2000890
:1016900040F2B0074FF6006A40F27409C8F8000043
:1016A000C2F20007C4F2AF0AC2F20009584600BFF6
:1016B000FFF742F95846FFF7CFF858464FF49671B6
:1016C000FFF704F85846FEF729FF40F27C01C2F20A
:1016D0000001088080B200F0FFFB00F00FFB024623
:1016E0000B4643F6705046F22331CDF20A70C4F235
:1016F000B30100F095F800F061F8C8F80000584612
:10170000FFF71AF9FEF73AFE3846FFF7A5F8384614
:101710004FF49671FEF7DAFF3846FEF7FFFE0646F5
:10172000D8F8000040F27201C2F200010E8000F011
:10173000E5FA0022534600F073F80546B0B20C46B5
:1017400000F0C6F902460B462846214600F0D8F9BB
:1017500000F034F840F27801C2F200010860384627
:10176000FFF7EAF8FEF720FE3846FFF775F838462F
:101770004FF49671FEF7AAFF3846FEF7CFFE0446F7
:10178000D8F8000040F27001C2F200010C8000F0B5
:10179000B5FA0022534600F043F80546A0B20E46C3
:1017A00000F096F902460B462846314600F0A8F9AB
:1017B00000F004F8C9F80000384679E721F000424B
:1017C00001F00043A2F16052B2F5801F28BFD2F1B0
:1017D0007F6C0BD95FEA001C43EAC20242EB5070F7
:1017E00018BF704728BF20F001007047B2F5801F76
:1017F000BCBF184670474FEA410C1CF5001F02D2CF
:10180000084600F0C2BB70B500F024FA0000008961
:10181000FFF7F6BF4FF00040A0F5800070470000D2
:101820002DE9C04130B4DFF8A0C23CEA111418BF62
:101830003CEA131400F0EC801CEA111481EA030561
:1018400044EAD57418BF1CEA131500F0C780A4EB56
:10185000050404F17F7404F500344FF0004545EAB7
:10186000C12145EAC32341EA505143EA52534FEAAA
:10187000C0204FEAC222994208BF904200F09C80EB
:101880004FEA13650FF24016765D4FEA134506FBEB
:1018900005F7C7F1807706FB07F74FEAD737A7FBB5
:1018A00003687642A7FB06CEC8F5803838BFA8F19A
:1018B000010807FB08E6A6FB028C4FF0000EE6FBD2
:1018C00003CEDCF1000CCEF1004E38BFAEF1010EBC
:1018D000A6FB0C584FF00007E6FB0E87A1FB08C6DD
:1018E000A0FB07CE16EB0E064FF0000545F10005F4
:1018F000E1FB076515F1E04E7EBFA4F580345FEA99
:1019000046066D4116F1800745F100054FEA17279D
:1019100047EA05674FEA15254FEA0666A6F1DE4657
:10192000B6F1805F1FD9384605EBC47124F0010C75
:1019300001EB0C11BCF1FE6F02D8F0BCBDE80081D8
:1019400024425CBF01F5801E9EEAC47F02D4F0BC35
:10195000BDE80081244238D4A1F1C041F0BCBDE80B
:10196000004100F0C5B94FEAD02040EA41504FEAAB
:10197000D1214FEAD22242EA43524FEAD323A7FBB6
:10198000028607FB036605FB02661EEA0E0F58BFC0
:10199000A6EB0056B6EB00564FEA520E4EEAC37E57
:1019A00018EB0E0E56EB530EBDD518EB02085E4138
:1019B0007F1C55F10005B6E74FF480154FF0000786
:1019C0004FF000064FF00008ADE701F1C04101F013
:1019D00000414FF00000F0BCBDE800810CEA131597
:1019E00011EA0C1F00D00CE013EA0C1F00F0258058
:1019F0004FF0000081EA030101F00041F0BCBDE8B6
:101A00000081F0BCBDE8004181EA030100F070B93B
:101A1000F0BCBDE8004170B500F01CF9097EFC3E49
:101A200000F007B84FF0000081EA030101F0004127
:101A3000704781EA030100F05BB9F0BCBDE80041EA
:101A400022494FF000007047FFFDFBF9F7F5F4F273
:101A5000F0EEEDEBE9E8E6E4E3E1E0DEDDDBDAD849
:101A6000D7D5D4D3D1D0CFCDCCCBCAC8C7C6C5C4A7
:101A7000C2C1C0BFBEBDBCBBBAB9B8B7B6B5B4B3BE
:101A8000B2B1B0AFAEADACABAAA9A8A8A7A6A5A4A9
:101A9000A3A3A2A1A09F9F9E9D9C9C9B9A9999986D
:101AA0009797969595949393929191908F8F8E8E10
:101AB0008D8C8C8B8B8A898988888787868585849D
:101AC00084838382828181800000FF070000F87F89
:101AD00010F0004248BF4042B0FA80F310FA03F120
:101AE0000AD0C3F11D0303F5806302EB03524FEAF2
:101AF000415002EBD12170474FF0000070470000C9
:101B000070B5DFF848C11CEA111E1EBF1CEA131590
:101B10009EEA0C0F95EA0C0F00F06F8081EA030437
:101B20004EEAD47EAE4421EA4C1123EA4C1341F430
:101B3000801143F48013AEF17F7EA1FB024CA0FB29
:101B40000365361955EB0C05A1FB034C4CF1000362
:101B5000A0FB021C16EB0C06654153F10003094281
:101B600018BF46F0010613F4007F0BD14FEA033192
:101B70004FEA053041EA155140EA165034036FF040
:101B800003020AE04FEAC3214FEAC52041EA55515A
:101B900040EA5650F4026FF0020202EB2E4201EBD3
:101BA000025585EACE710AD05FEA440C18BF24F0D2
:101BB000004450F1000041F1000120EAD47040F2ED
:101BC000FE7C624500D270BDA84214BF4FF0804435
:101BD0004FF04044002E08BF0024BEF1806FA8BF24
:101BE000A1F1C041BDE8704080F2828001F1C041A6
:101BF00001F000414FF0000070470CEA13159EEA17
:101C00000C0F18BF95EA0C0F06D081EA030E4FF0B7
:101C100000000EF0004170BD00F01CF88900013E8C
:101C200000F007B800F009B84FEA430C5FEA5C5CCB
:101C300008D081EA030100F05BB84FEA410C5FEA8B
:101C40005C5CF6D102494FF0000070470000FF07CE
:101C50000000F87F0EF1020E2EF0030E5EF8046B0A
:101C6000364205D4012A43EB030515F5001F12D8AF
:101C7000012841EB010C1CF5001F0CD80ED14FEAD6
:101C8000D17C0CEB4C0C0CF1020C15F5001F08BFBD
:101C90004CEBD37C04E04FF0080C01E04FEAD37C1E
:101CA0000CEB4C0526FA05F606F00706B6F1040C17
:101CB00006D20EEB860CBDE870404CF0010C60477C
:101CC000DFE80CF0090B02024FF00041A1F5002102
:101CD0004FF0000070BD19461046012851EB010479
:101CE00018BFD4F5001484BF002001F0004170BD7E
:101CF0000808A0F500114FEA3101704743004FEA90
:101D0000D30C4FEA3C0C43401FBF40070CF160511D
:101D100013F0FE4F70471CF0006F03D10CF0004130
:101D2000002070470CF0004343EA507040EACC00BA
:101D300010B500F0E4F800BF000000924FEA000187
:101D4000FFF7D6BF4FF00041A1F500214FF0000092
:101D5000704700004FF47F0C1CEAD0121EBF1CEA33
:101D6000D11392EA0C0F93EA0C0F00F0858090EAF1
:101D7000010F48BF42F4807240F4000C41F40000AF
:101D80002CF07F4120F07F4000B5A2EB030281429E
:101D90000FF2081CACEB504E9EF800E0C0F10000C2
:101DA0004FEA4E0E00FB0EFC38BF49004FEA2C1CD8
:101DB0000CFB0EF34FEACE1E0EEB635E4FEA112CC6
:101DC0000EFB0CFC4FEAC1214FEA1C5300FB031130
:101DD00002F5FA024FEA112C0EFB0CFC4FEA01311E
:101DE0004FEADC4C00FB0C1142EB2242C14228BFFF
:101DF00009184CEB03335DF804EB10EB410143EBA6
:101E0000C250B2F57C0F38BF704729D512F0F00FE1
:101E10001CBF00F1C04000F0004070470081828389
:101E20008485868788898B8C8D8E8F9192939596E9
:101E300097999A9C9D9FA0A2A3A5A7A8AAACAEB073
:101E4000B2B3B5B7B9BCBEC0C2C5C7C9CCCED1D478
:101E5000D7D9DCDFE2E6E9ECF0F3F7FAFE000000A8
:101E60004FEA400C0CF1807CBCF17E4F28BF7047DC
:101E7000B0F1C04000F089B80CEAD11390EA010F2C
:101E800048BF42F48072624538BF634507D213F4FD
:101E90007F0F16D080EA010000F00040704710B5B7
:101EA00000F02DF8097EFC3E00F005B880EA010044
:101EB00000F00040704780EA010000F0004000F0B0
:101EC00064B812F47F0F04BF0248704780EA010033
:101ED00000F05BB80000C07FB0FA80F310FA03F2A4
:101EE000C3F19D030AD0D90501EB1220530638BF78
:101EF000704700F1010008BF20F0010070470EF1AB
:101F0000020E2EF0030E5EF8044B244204D44FEA76
:101F10004102B2F17F4F11D84FEA4003B3F17F4F36
:101F20000CD80ED14FEAD07C0CEB4C0C0CF1020C0F
:101F3000B2F17F4F08BF4CEBD17C04E04FF0080CAE
:101F400001E04FEAD17C0CEB4C0324FA03F404F0DB
:101F50000704B4F1040C06D20EEB840CBDE810406B
:101F60004CF0010C6047DFE80CF0070802024FF06C
:101F70000040A0F5800010BD0846420018BFD2F115
:101F8000807288BF00F0004010BDFF2141EAD050B0
:101F9000C0057047000000000000000001020304BB
:101FA000060708090000000001020304D01F000812
:101FB000000000201000000028010008E01F0008B9
:101FC00010000020D80600004401000800000000B6
:101FD0000024F400010000001000000000000000D8
:04000005080000ED02
:00000001FF
